:020000040800F2
:100000000000022079130008C91300089581000838
:10001000C9130008C9130008C91300080000000034
:10002000000000000000000000000000C9130008EC
:10003000C913000800000000C913000885810008EA
:10004000C9130008C9130008C9130008C913000820
:10005000C9130008C9130008C9130008C913000810
:10006000C9130008C9130008C91300089923000820
:10007000A5230008591D0008B1230008BD2300086E
:10008000C9130008ED820008C9130008C91300084D
:10009000C9130008C9130008C9130008C9130008D0
:1000A000C9130008C9130008C9130008C9130008C0
:1000B000C9130008C9130008C913000811830008F8
:1000C000C91300081D830008C9130008C9130008DC
:1000D000C9130008C9130008C9130008C913000890
:1000E000C9130008C913000800000000C913000864
:1000F000C9130008C9130008C9130008C913000870
:10010000C9130008C9130008C9130008C91300085F
:10011000C9130008C9130008C9130008C91300084F
:10012000C9130008C9130008C9130008C91300083F
:10013000C9130008C9130008C9130008C91300082F
:1001400000000000000000000000000000000000AF
:10015000C9130008C9130008C9130008C91300080F
:1001600029830008C9130008C9130008C91300082F
:10017000C9130008C9130008C9130008C9130008EF
:10018000C9130008C9130008C9130008C9130008DF
:10019000C9130008C9130008C9130008C9130008CF
:1001A000C9130008C9130008C9130008C9130008BF
:1001B000117D0008C9130008C9130008C9130008FD
:1001C000C9130008C9130008C9130008C91300089F
:1001D000C9130008C9130008C9130008C91300088F
:1001E000C9130008C9130008C9130008C91300087F
:1001F000C9130008C9130008C9130008C91300086F
:10020000C9130008C9130008C9130008C91300085E
:10021000C9130008C9130008C9130008C91300084E
:10022000C9130008C9130008C91300080000000022
:10023000C9130008C913000800000000C913000812
:10024000C9130008C9130008C9130008C91300081E
:10025000C9130008C9130008C9130008C91300080E
:10026000C9130008C9130008C9130008C9130008FE
:10027000C9130008C9130008C913000800000000D2
:10028000C9130008C9130008C913000800000000C2
:0802900000000000C913000882
:1002980010B5054C237833B9044B13B10448AFF3B8
:1002A80000800123237010BD80000024000000009E
:1002B8009802000808B5034B1BB103490348AFF384
:1002C800008008BD00000000840000249802000897
:1002D80081F0004102E000BF83F0004330B54FEAEF
:1002E80041044FEA430594EA050F08BF90EA020F5C
:1002F8001FBF54EA000C55EA020C7FEA645C7FEAEF
:10030800655C00F0E2804FEA5454D4EB5555B8BF11
:100318006D420CDD2C4480EA020281EA030382EA82
:10032800000083EA010180EA020281EA0303362D14
:1003380088BF30BD11F0004F4FEA01314FF4801CE7
:100348004CEA113102D0404261EB410113F0004FF9
:100358004FEA03334CEA133302D0524263EB4303B0
:1003680094EA050F00F0A780A4F10104D5F1200E4E
:100378000DDB02FA0EFC22FA05F2801841F10001A9
:1003880003FA0EF2801843FA05F359410EE0A5F17D
:1003980020050EF1200E012A03FA0EFC28BF4CF0AE
:1003A800020C43FA05F3C01851EBE37101F0004564
:1003B80007D54FF0000EDCF1000C7EEB00006EEB71
:1003C8000101B1F5801F1BD3B1F5001F0CD34908FB
:1003D8005FEA30004FEA3C0C04F101044FEA445252
:1003E80012F5800F80F09A80BCF1004F08BF5FEAD9
:1003F800500C50F1000041EB045141EA050130BDB9
:100408005FEA4C0C404141EB0101013C28BFB1F5CA
:10041800801FE9D291F0000F04BF01460020B1FA15
:1004280081F308BF2033A3F10B03B3F120020CDAE8
:100438000C3208DD02F1140CC2F10C0201FA0CF0C6
:1004480021FA02F10CE002F11402D8BFC2F1200C2B
:1004580001FA02F120FA0CFCDCBF41EA0C019040E1
:10046800E41AA2BF01EB0451294330BD6FEA04042A
:100478001F3C1CDA0C340EDC04F11404C4F1200215
:1004880020FA04F001FA02F340EA030021FA04F327
:1004980045EA030130BDC4F10C04C4F1200220FA7E
:1004A80002F001FA04F340EA0300294630BD21FABC
:1004B80004F0294630BD94F0000F83F4801306BF82
:1004C80081F480110134013D4EE77FEA645C18BF76
:1004D8007FEA655C29D094EA050F08BF90EA020F0D
:1004E80005D054EA000C04BF1946104630BD91EA05
:1004F800030F1EBF0021002030BD5FEA545C05D108
:100508004000494128BF41F0004130BD14F5800446
:100518003CBF01F5801130BD01F0004545F0FE41BA
:1005280041F470014FF0000030BD7FEA645C1ABFEF
:10053800194610467FEA655C1CBF0B46024650EA26
:10054800013406BF52EA033591EA030F41F4002152
:1005580030BD00BF90F0000F04BF0021704730B5D8
:100568004FF4806404F132044FF000054FF00001AD
:1005780050E700BF90F0000F04BF0021704730B56E
:100588004FF4806404F1320410F0004548BF404243
:100598004FF000013EE700BF42004FEAE2014FEA98
:1005A80031014FEA02701FBF12F07F4393F07F4F73
:1005B80081F06051704732F07F4208BF704793F076
:1005C8007F4F04BF41F40021704730B54FF4607489
:1005D80001F0004521F000411CE700BF50EA01028C
:1005E80008BF704730B54FF000050AE050EA010235
:1005F80008BF704730B511F0004502D5404261EBA5
:1006080041014FF4806404F132045FEA915C3FF4E5
:10061800D8AE4FF003025FEADC0C18BF03325FEA82
:10062800DC0C18BF033202EBDC02C2F1200300FA33
:1006380003FC20FA02F001FA03FE40EA0E0021FA58
:1006480002F11444BDE600BF30B4194C0022194B26
:10065800D4F88810184841F47001184DC4F888106F
:100668001C68174944F001041C601A611C6820408A
:1006780018609A61DA611A629A62DA621A635A63D6
:100688009A63DA631A645A64186820F48020186040
:100698001A662B681940B1F1005F02D2094B01229A
:1006A8001A60034B4FF0006230BC9A60704700BF7D
:1006B80000ED00E0004402587FEDF6EA0010005C0F
:1006C8000000FFFF08810051704700BF704700BF5E
:1006D800704700BF704700BFF8B519480025194E8C
:1006E800194F34462DED028B00F056FF144800F0E8
:1006F80077FE1649124800F065FE114800F06CFEBE
:10070800B0EE408A124B134A1349144800F0FEF920
:10071800BDEEC88A02233B602046114A18EE101A23
:10072800013500F04FFA3B6804F50034AB4204F1A0
:10073800D404F1DC0B4A0021012311603375FEE774
:10074800480204249C000024F403042475090008CA
:1007580080320200000000C000CA08C0E003042480
:1007680000770100DC030424364AF8B592F85D30BE
:100778007F2B45D0344D2B68002B40DD334E546F12
:10078800337DCBB106EE904A96ED067AFAEE087AFA
:10079800B8EEE60A30EE070AB4EEE70AF1EE10FA10
:1007A80045D4F2EE087AB4EE670AF1EE10FA37FE95
:1007B800800A264800F06EFB2B68012B1FDD244BB6
:1007C800F35CE3B107EE904A224BB8EEE70A93EDEB
:1007D800007AFAEE087A30EE070AB4EEE70AF1EE8C
:1007E80010FA27D4F2EE087A1B48BDE8F840B4EEB8
:1007F800670AF1EE10FA37FE800A00F04BBBF8BD2D
:10080800164E4FF0000C104D30682B68411C0F4FEE
:1008180091FBF3F403FB1414114901FB007001FB75
:100828000471012780F814C034600F75A4E7B0EE96
:10083800670ABEE7B0EE670A0748BDE8F84000F06F
:1008480029BB00BF48020424F40304249C000024AC
:10085800E80002008801022470010224DC03042459
:10086800D400020038B533482DED028B00F0BCFDF2
:10087800304800F0C5FD304802F0CCFA2F48B0EE01
:10088800408A02F0C7FA2E4B186800282CDDDFEDED
:100898002D7A9FED2D7AF0EE675A9FED2C6A2C4C3D
:1008A800E0EE067A2B49E8EE075A0D7DFDEEE77A71
:1008B800BDEEE57A17EE903A17EE102AA242A8BFCD
:1008C8002246A342A8BF234622EAE27223EAE37340
:1008D8000DB18A600B60012806D01F48085C18B16A
:1008E8001E4C1F480A510B50124B1E4C93F8CD302A
:1008F8007F2B17D0FFF738FF237A1B4800EE903A7A
:10090800637A9FED101A00EE103AF8EE600AB8EE1E
:10091800400A02F021FB0748BDEC028BBDE83840D5
:1009280000F07EBD637A002BE4D14FF480732381FD
:10093800E0E700BF48020424C0020424DC020424C7
:10094800F4030424000000000080BB470080BB467D
:100958007F3202009C000024E8000200DC00020054
:10096800D4000200E0030424280304242DE9F04104
:10097800164680460C462DED028B86B0FFF772FFB7
:10098800002E47D0013E0025254F26F0010636E00F
:1009980023490834234800F009FB214922488DEDFA
:1009A800010A00F003FBB0EE408ADDED010AB5EE66
:1009B800000A04AA02A91D4800F062F8F0EE480AED
:1009C80005AA03A91948B6EE080A00F059F8DDEDA2
:1009D800037A9DED020A30EE270A08F089FE9DEDA4
:1009E800047ADDED057A04ED020A37EE270A08F0ED
:1009F8007FFEAB1CAE4204ED010A1D460AD07B7A8D
:100A0800002BC5D008EB8503054893ED000A00F0DC
:100A1800B7F8BDE706B0BDEC028BBDE8F08100BFBA
:100A2800E00304249C0000247001022444020424EE
:100A380008B50B4A0B490C4808F05EFC084A0B49FC
:100A48000B4808F059FC064A0A490B4808F054FCC0
:100A5800034A0A490020BDE8084008F04DBC00BF21
:100A680000000024D106000848020424D506000826
:100A780044020424D9060008E0030424DD06000823
:100A880038B52DED068B9FED208AF0EE608A0D4675
:100A9800144620EE080A9FED18ABBDEEC08A9FED04
:100AA800189BB8EEC80AB7EEC00A20EE0A0B80EE13
:100AB800090B08F029FC18EE102A40F2FF339B1AA4
:100AC800F7EEC07B07EE103A67EEA87AB8EEC70AD1
:100AD800C5ED007AB7EEC00A20EE0A0B80EE090BCE
:100AE80008F012FCB7EEC00B60EE280ABDEC068BCE
:100AF800C4ED000A38BD00BF182D4454FB21F93F4E
:100B08000000000000F88F4000C07F4410B40024AB
:100B1800A3420481C0E90312C0E9004308DD02EBE7
:100B28008300002342F8043B824241F8043BF8D199
:100B38005DF8044B704700BF416800291DDDC3689C
:100B4800DFED0E7A03EB81011A46B2EC017AB4EEBE
:100B5800E77AF1EE10FA58BFF0EE477A9142F4D1F5
:100B6800F7EE006A86EEA77AD3ED007A67EE277A69
:100B7800E3EC017A8B42F7D1704770470000000020
:100B8800D0E9003210B59342044607DAC268591C0E
:100B980002EB8303016083ED000A10BD01220023EC
:100BA80002810360FFF7C8FF40680028F5DDD4E93B
:100BB800033203EB800053F8041B834242F8041B02
:100BC800F9D110BD00232DE9F04F2DED028BC0E9BE
:100BD8000023002A954F08EE101A954EB8BF03322D
:100BE8004FF07E51934D07449210B8EEC88A836047
:100BF8004FF00008C2600644016105448E4B002294
:100C08008E4983B00446B94680F8148000F8018004
:100C1800826186ED008A2B6007EE908A08F1010850
:100C2800B0EE000AF8EEE70AF2EE087AC0EEA70A7C
:100C380008F0BAFBB8F10C0FA9EC010AECD1804B13
:100C48000020804A04F128012344224418604FF010
:100C5800000941F8049B8A42F9D17B4A0121DFF857
:100C680020A20020794B2244A244206223446162DE
:100C78009FED770A504682ED008A04F11C08C3F8FC
:100C8800009008F00BFB734A734B744922442344C9
:100C98002144C2F80090002243F8042B8B42FAD179
:100CA800DFF8E0C1012365494FF0000BDFF8D8E118
:100CB800A4446B4888446B4ADFF8D09144F80EB0DE
:100CC80022442350A1448CED008A4046DFF8C0C17D
:100CD8009FED5F0AC2F800C008F0E0FAD9ED007A8B
:100CE80001235649B0EEE77A4FF4804C635408313B
:100CF8005D4AF5EEC07AFCEEC76A6354DFF878E126
:100D080048F22200F1EE10FACDED016A9DF80430A8
:100D180044F80EC0A2FB03C24FEAD20202EB420221
:100D2800A3EB820350FA83F304EB8303D3ED076A42
:100D380001DC04F801B0B2EE085AD6ED005ABFEE55
:100D4800000A9FED4A6ADFED4A4AC7EE057AFCEED3
:100D5800E77ACDED017A9DF80430013307EE903A39
:100D6800F8EEE77AA6EEA70A20EE250A20EE060A94
:100D7800B4EEE40AF1EE10FA4ED485ED000A5046BE
:100D880008F08CFA95ED000A404608F087FA2B4BDC
:100D9800E25C0AB10022E254D9ED007A0022354B18
:100DA800F5EE407A2344F1EE10FA1A6002D1234B93
:100DB800E35C63B3B7EE007A2F4BD7ED007A0022DD
:100DC800E31896ED006A77EEC77ADFED296A93EDAE
:100DD800007A2A4BB8EE477AC9ED006A67EE867A40
:100DE800E25487EE870AB4EEE60AF1EE10FA18D458
:100DF80085ED000A504608F051FA404695ED000A84
:100E080008F04CFA0D4BE25C0AB10022E25403B040
:100E1800BDEC028BBDE8F08FB0EE640AC5ED004A68
:100E2800ADE7B0EE660AC5ED006AE3E7A40002008C
:100E380044000200380002000000A0404000020008
:100E48006C00020028000100500002005800020057
:100E58000000484270000200340001003400020023
:100E68003000010068000200ABAAAAAA000080387E
:100E780000000000800002003C0002004800020060
:100E88004C000200600002002C0001007C000200FF
:100E9800DB0F49403C490144D1ED007AB4EE670AC2
:100EA800F0B5F1EE10FA83B0044680ED060A03D1DE
:100EB800364BC35C002B5ED0F0EEC07A81ED000AA1
:100EC800F2EE086A3249334A48F22200BCEEE76A79
:100ED8002144C7EEA65A304D9FED305A8DED016A78
:100EE8009DF8043091ED006AA2FB0312BFEE007A70
:100EF8006119B4EEC50AD208D1ED006A02EB4202CC
:100F0800F1EE10FAF8EE666A2549A3EB8203CCBF2E
:100F18000122002250FA83F304EB8303FCEEE57A06
:100F2800D3ED075A6254CDED017A9DF804300133B0
:100F380007EE903AF8EEE77AA5EEA77A67EE067A1A
:100F480087EEA60AB4EEC50AF1EE10FA15D4043DF0
:100F5800254485ED000A134804F11C060B4F204474
:100F680008F09CF9F01995ED000A08F097F9E35D8F
:100F78000BB10023E35503B0F0BD0B4DB0EE450AAD
:100F8800254485ED005AE6E77C0002004000020097
:100F980044000200ABAAAAAA3C000200000000001C
:100FA800480002004C000200380002002DE9F0471A
:100FB8000446D0E900032DED048B5A1C92FBF0F394
:100FC80000FB132303B9A368CE4A487A9A426360A8
:100FD800A8BF1A4622EAE272002800F08D810B6948
:100FE80003EB82021668C84804F11C05204408F087
:100FF80065F9C648F0EE408A284408F05FF9C4490C
:10100800B0EE408A2144D1ED007AF4EEE78AF1EEA1
:1010180010FA00F1DE80BF4ABF4B2244BF48234488
:10102800D2ED005A93ED007A2358BD4D2544D5EDF5
:10103800007AB4EEE78AF1EE10FA00F11181B948AE
:10104800B94A2044224490ED006AD2ED007ADFF8D4
:101058001093B64FA144B64A2744D9ED006AA25C62
:1010680037EE667AE7EE256AC9ED006A97ED007AF1
:1010780077EEC77AA7EE867A87ED007AC1ED008A07
:1010880085ED008A2AB1F7EE007A77EEE88A37EE26
:10109800C88A013BDFF8CCA2DFF8CC8207EE903A91
:1010A8009FEDA49AA044A244F8EE677AA24D28EED8
:1010B800890A254427EEA87A67EE887A8AED007AAD
:1010C800C8ED007A08F070FBF0EE407A28EE090AC5
:1010D800C5ED007A08F068FB9848D9ED007A43F628
:1010E800FF7C2044226A964B80ED000A02EB0C013B
:1010F8009AED007A234404EB8202C1F30D0137EE26
:10110800277AD8ED007A96622162FDEEC76A5A689E
:101118009FED8C0A02EB0C0803EB820EB8EEE66A30
:10112800C8F30D02CEF80C6016EE906ADFF83CE2C8
:1011380037EE467A5A60664584ED077A28BF6646D8
:10114800D7ED006A3144666277EEA67A4E1CC1F389
:101158000D01FDEEE76AC6F30D0704EB810104EB10
:10116800870716EE906AB8EEE66A664577EEC67AA5
:1011780028BF66463244C3ED007A97ED0A5A91EDCE
:101188000A6A02F1010CC2F30D0295ED004A35EE30
:10119800465ACCF30D0C03EB8202D0ED004A03EB68
:1011A8008C03A7EE056AD2ED036AD3ED035A94EDDA
:1011B800047A75EEE65A44F80E60BDEC048BE7EE4F
:1011C800A56AA6EE040AA6EEA40A20EE070ABDE860
:1011D800F0875D4F5D4D3B685D48254483EA4333A6
:1011E800DFED5C6A95ED004A83EA53439FED5A6A46
:1011F800DFED5A5A83EA431383EA4332A0FB03C55F
:1012080082EA5242ED0982EA4212C5EB0525A0FBAB
:1012180002C05B1B414DC0093A6007EE903A635922
:10122800C0EB00203C4FF8EEE77A04EE903A101A33
:101238006035FBEEEF4A274487EEA67A07EE900A60
:101248002544F8EEE77A87EEA65A27EE047A27EEC9
:10125800247A87ED007AE5EE065AC5ED005AE4E6F1
:10126800DFF8E4C0DFF8E4E0DCF800203848A64402
:1012780082EA42329FED375ADEED003A82EA524264
:10128800DFED354A9FED356A82EA421282EA42373B
:10129800A0FB028E87EA57474FEADE1E87EA471708
:1012A800CEEB0E2EA0FB0780A2EB0E02CCF800704E
:1012B800C009DFF874C007EE902A1A4AC0EB002074
:1012C800A444F8EEE76A2244381AC6EE857A06EE98
:1012D800900AF8EEE66A86EE854A06EE903AFBEE4C
:1012E800EF6A67EEA37A67EEA67ACCED007AA4EEF1
:1012F800246A82ED006AAAE6CB6803EB82021668CC
:1013080071E600BF803202004C000200400002007B
:101318008C0002009C000200840002003C000200D5
:1013280090000200A000020088000200980002005D
:1013380048000200DB0F49406C0002007000020008
:1013480028000100000000000C00002480000200BA
:101358008180808000007F436F12833A17B751392C
:1013680094000200740002007800020030000100BE
:10137800DFF834D0002103E00C4B5B5843500431B4
:101388000B480C4B42189A42F6D30B4A02E0002352
:1013980042F8043B094B9A42F9D3FFF755F909F093
:1013A8004BFBFFF799F9704700000220B4B1000821
:1013B800000000247C00002480000024241F042452
:1013C800FEE70000002008B501F0D8F80020BDE8CD
:1013D800084001F0F9B800BF90ED620A704700BFFD
:1013E800403000F049BC00BF10B50446783001F029
:1013F80011FD04F19400BDE8104001F00BBD00BFE1
:1014080010B50446583001F04FFD04F1B80001F062
:10141800FDFD04F1C800BDE8104001F0F7BD00BFB4
:1014280010B50446E03001F0C7FD04F59A70BDE838
:10143800104001F0C1BD00BF2DE9F04114218CB06E
:10144800044606F0B7F903461321204604F1E007E5
:10145800ADF80C3006F0AEF90346122120464FF0E5
:101468000108ADF8103006F0A5F90346049A38468D
:101478000399ADF8143004F59A76059B06ADCDF8BE
:10148800008001F041FD2046112106F093F9034642
:1014980018212046ADF80C3006F08CF903461721C8
:1014A800204609ACADF8103006F084F90346049ADA
:1014B80030460399ADF81430059BCDF8008001F053
:1014C80023FD2846072101F0D7FD95E8070084E8A9
:1014D80007003846214601F059FD95E8070084E8E1
:1014E80007002146304601F051FD384601F064FD01
:1014F800304601F061FD0CB0BDE8F08170B5DFED5C
:10150800250A8EB015210446CDED010A06F052F9E0
:10151800034605A804F1400504F17806ADF80C303F
:10152800039900F0A7F820460F2106F043F9034677
:101538000DF12500ADF81030049900F09BF805A9CD
:1015480028460222042300F0A3F804F19403284655
:101558000021C4E92C6300F0ABFB002394ED630A7F
:101568000146DDED010A1A46304601F039FC2846ED
:101578000121D4F8B45000F09BFB00230146DDEDB7
:10158800010A284694ED630A1A4601F029FC0EB0B8
:1015980070BD00BF6F12033B3022344B344970B525
:1015A800044686B0C0F8902100F1B806C0F88C3126
:1015B80000F1C805C0F8881106F082F8204606F048
:1015C800DDF801F0EFFB20461C2106F0F3F8034696
:1015D80094ED630A3046ADF81030049901F0FAFC36
:1015E80020461B2106F0E6F8034694ED630A2846D8
:1015F800ADF81430059901F0EDFC20461A21C4E934
:10160800366506F0D7F8034619212046ADF80430B0
:1016180006F0D0F803460D212046ADF8083006F054
:10162800C9F80346019994ED630A04F15800ADF82E
:101638000C30029A039B01F011FC2046FFF7FCFED8
:101648002046FFF75BFFD4F89011D4ED626A0020C2
:1016580007EE901AB8EE677AC6EE877AC4ED637A19
:1016680006B0BDE8704000F099BF00BFAB127A44E5
:10167800008E3B4782B000230322ADF80410BDF86A
:101688000410827001800374C37002B0704700BFF9
:101698002DE9F04F0026DC4CDC4F964642608FB0B7
:1016A800037007F1380284F8FCE08446A4F8096165
:1016B800C4F8FD60C4F80161C4F80561BE61039611
:1016C8000696C7E90066C7E90266C7E90466436883
:1016D800CDE90466C4E94A72CDE90766CDE9096631
:1016E800CDE90B66002B00F06B810D460868A0461B
:1016F8004968EB68AA683E80A8E80F002B7C88F848
:1017080000302B7C84F8FD30DCF80430012B40F2EB
:1017180057812B467E8053F8118F58689968DA688C
:10172800C4F81180C4F81500C4F81910C4F81D20B5
:101738001B7C84F8213095F8213084F8FE30DCF8E1
:101748000430022B40F23C812B46BE8053F8228F96
:1017580058689968DA68C4F82280C4F82600C4F882
:101768002A10C4F82E201B7C84F8323095F83230C9
:1017780084F8FF30DCF80430032B40F221812B463B
:10178800FE8053F8338F58689968DA68C4F8338054
:10179800C4F83700C4F83B10C4F83F201B7C84F819
:1017A800433095F8433084F80031DCF80430042BDA
:1017B80040F20681A94604F144083E8159F8440FD5
:1017C800D9F80C30D9F80410D9F80820A8E80F0087
:1017D80099F8103088F8003095F8543084F80131C1
:1017E800DCF80430052B40F2EB802B467E8153F861
:1017F800558F58689968DA68C4F85580C4F8590054
:10180800C4F85D10C4F861201B7C84F8653095F835
:10181800653084F80231DCF80430062B40F2D080C1
:101828002B46BE8153F8668F58689968DA68C4F801
:101838006680C4F86A00C4F86E10C4F872201B7C75
:1018480084F8763095F8763084F80331DCF8043083
:10185800072B40F2B5802B46FE8153F8778F5868E6
:101868009968DA68C4F87780C4F87B00C4F87F10F8
:10187800C4F883201B7C84F8873095F8873084F877
:101888000431DCF80430082B40F29A80A94604F1B0
:1018980088083E8259F8880FD9F80C30D9F8041016
:1018A800D9F80820A8E80F0099F8103088F8003017
:1018B80095F8983084F80531DCF80430092B7FD985
:1018C8002B4608F101064FF0000A53F8998FA7F844
:1018D80012A058689968DA68C4F899807060B16095
:1018E800F2601B7C337495F8A93084F80631DCF873
:1018F80004300A2B64D92B46A7F814A053F8AA8FF2
:1019080058689968DA68C4F8AA80C6F81500C6F855
:101918001910C6F81D201B7C86F8213095F8BA30BE
:1019280084F80731DCF804300B2B49D92B46A7F88B
:1019380016A053F8BB8F58689968DA68C4F8BB805A
:10194800C6F82600C6F82A10C6F82E201B7C86F892
:10195800323095F8CB3084F80831DCF804300C2BA1
:101968002ED9A94606F13308A7F818A059F8CC0FC4
:10197800D9F80C30D9F80410D9F80820A8E80F00D5
:1019880099F8103088F8003095F8DC3084F809317F
:10199800DCF804300D2B13D92B46A7F81AA053F8FE
:1019A800DD7F58689968DA68C4F8DD70B064F1645E
:1019B80032651B7C86F8543095F8ED3084F80A318E
:1019C8005FFA8EF1124D4FF480209CF8002000231E
:1019D8000826C4F848110121C4F830514FF4807525
:1019E800C4F834010320C4F8383184F84C31A4F821
:1019F8004451C4F85C01C4E95533C4E95833C4E917
:101A08004F16AAB106E000BFF80304240000003016
:101A180000200240013A84F86811C4E95D31082ABF
:101A280008D8DFE802F083888D92979CA1A7AE00C2
:101A380084F86821804801F05BFF034608B1FFBEC7
:101A4800FEE703A97C48039302F0AEF80546002898
:101A580040F0EB8040F2FF7302220420002184F85A
:101A68000C52CDE9082394F8FC30CDE90A01002B8B
:101A780000F0D8800627DFF8F8B1DFF8F8A121E0F8
:101A8800022B00F0A980012B40F0B28099F80130B8
:101A9800012B00F0C180002B0CBF5346002306A980
:101AA80065480693079701F047FB002840F0B2808D
:101AB800013594F8FC30EDB2AB4240F2B3805F4B95
:101AC80053F825702EB206EB061604EB06094846B5
:101AD80001F0E4F805EB051323441B7C042B00F309
:101AE8009F80022B00F39A8052D06219002182F85D
:101AF800EE10002B50D1A35D002BC1D199F8013015
:101B0800062B00F08380072B7ED0022B7AD0032B84
:101B180076D0002B7CD0012B00F08980042B00F0BC
:101B28008880052B464B18BF0023B8E703234022C3
:101B3800C4E95B327EE707236022C4E95B3279E7B8
:101B48000F238022C4E95B3274E71F23A022C4E973
:101B58005B326FE73F23C022C4E95B326AE77F2329
:101B6800E022C4E95B3265E7FF234FF48072C4E9E1
:101B78005B325FE740F2FF134FF49072C4E95B32C7
:101B880058E740F2FF334FF4A072C4E95B3251E7E3
:101B98000123621982F8EE306319012193F8EE20CF
:101BA80084F80C12002AA6D006F104081A4600236D
:101BB800009701962F46A0441D461646404601351B
:101BC80001F06CF896F8EE3008F10408AB42F5DC49
:101BD8003D46DDE900768EE799F80130042B0DD0FB
:101BE800052B09D033B1012B164B18BF002356E73C
:101BF800002354E7144B52E7144B50E7144B4EE7BD
:101C0800144B4CE7144B4AE7144B48E7144B46E790
:101C1800144B44E7FFBEFEE75B4640E70223B8E704
:101C28000323B6E70FB0BDE8F08FFFBEFEE70E4B0B
:101C380035E70E4B33E700BF28050424C4AA000883
:101C48000000B84F0008302E0004002A000180214F
:101C58001000C0100080F03E0040C03A8000501DC7
:101C68000800900C00002143000052470000844BFC
:101C78002000F0140002B02510B50B4C40F2FF72A2
:101C88004FF0011104F5987001F03CFF94F80C3204
:101C980094F8FC2003B15200D4F828110348BDE899
:101CA800104001F09DBC00BFF8030424280504245B
:101CB800034B0D29D3F8280198BF00EB410070476A
:101CC800F80304241E4B02689A4200D070471D4B4B
:101CD8004FF48061D3F8D82070B542F020021A4C36
:101CE80005460920C4F8A4114FF40061C4F898010E
:101CF80082B0C3F8D82004F5CA76D3F8D8204FF4B8
:101D08000053124802F02002C4F8A811C4F8AC31FC
:101D18004FF480710023C4F8940101923046019A6F
:101D2800C4F8B011C4E96733C4E96D3304F0F6FDB3
:101D380008B1FFBEFEE7EE64C4F8CC5102B070BD36
:101D48000020024000440258F803042440000240E6
:101D5800014805F0D5B800BF8C05042402682DE9B8
:101D6800F84F2A4B9A4201D0BDE8F88FDFF8A090CF
:101D780099F8FC20002AF7D0002409F1040609F597
:101D8800867509F1FC07A04616E05FFA83FA03F0AE
:101D9800010117F80FBC304600F0BAFF301DBBF147
:101DA800010FCAF3400125D899F8FC2001341136F7
:101DB8000235A3B29A42D7D917F8011FC4EBC40C55
:101DC8000029F3D0D9F828210021D9F82C31287816
:101DD8008A4632F814E003EB4C13020123F802E0C0
:101DE8002B8801339BB22B803A789A42CDD8A5F83C
:101DF8000080CEE700F08CFFBBF1020F06F108006F
:101E0800CAF38001D0D000F083FFCDE70020024064
:101E1800F80304242DE9F04FD64F8DB0DFF86CB3EA
:101E2800BB6807F11006D7F810580BF582640BF160
:101E3800100207F5826903EB800E069483000A926C
:101E480004EB8508DBF8084006EB850C039302EBEE
:101E5800850197F81C3809EB850ACDF81C8004EB3E
:101E680080000B91CDE9086CCDE9049A002B00F0B5
:101E7800DA80012B40F0C480002D00F066810B460B
:101E880000240EF1040900F10408DFEDBB5A714685
:101E98000295019351F8343059F8345083F4000E08
:101EA80050F8343085F4000583F4000AAEF50003D9
:101EB80006EE103A58F83430AAF5000A013483F4D3
:101EC800000EA5F5000306EE90AAB8EEC66A07EE66
:101ED800103AAEF50003F8EEE66A07EE903AB8EE6F
:101EE800C77A019B26EE256AF8EEE77A66EEA56AC0
:101EF80027EE257AA6EC016A67EEA57AE2EC016A7C
:101F0800ACEC017AE3EC017A0193029BA342C1D1C4
:101F18001D467B682A4604A908A89847039ADBF857
:101F28000C00F96897F81C3810441144002B00F095
:101F3800B180012B5DD1DDF810A00023DDF81C90E5
:101F48000E1DDDF81880041DDDF814E09FED8B7A76
:101F5800DFF83CC2DFED8A6A8A4F3BE0F4EEE67AAE
:101F6800F1EE10FAC0F22B813A46FEEC017A41F804
:101F78003320F4EEC77AF1EE10FA3FD9F4EEE67AA0
:101F8800F1EE10FAC0F222813A46F8EC017A46F8EE
:101F98003320F4EEC77AF1EE10FA2DD9F4EEE67A92
:101FA800F1EE10FAC0F219813A46F9EC017A40F8DC
:101FB8003320F4EEC77AF1EE10FA14D9F4EEE67A8B
:101FC800F1EE10FAC0F2C7803A4644F833200133E4
:101FD8009D420ED9FAEC017AF4EEC77AF1EE10FAC6
:101FE800BCD86246C1E7624644F8332001339D42BB
:101FF800F0D80DB0BDE8F08F6246D6E76246C4E778
:102008007B682A4604A908A89847039ADBF80C00BD
:10201800F96897F81C3810441144CBB3012BE8D168
:10202800002D88D1E5E7002D00F08F800EF104091E
:1020380000F10408DFED545A3EF9334006EE104A29
:1020480030F9334006EE904A39F93340B8EEC66AA3
:1020580007EE104A38F93340F8EEE66A013307EE26
:10206800904AB8EEC77A26EE256A9D42F8EEE77ADE
:1020780066EEA56A27EE257AA6EC016A67EEA57AD0
:10208800E2EC016AACEC017AE1EC017AD4D140E7E8
:10209800002DAED0DDF810A00023DDF81C900E1D39
:1020A800DDF81880041DDDF814E09FED347ADFF8C0
:1020B800E0C0DFED336A334F38E0F4EEE67AF1EE54
:1020C80010FA4FDB3A46FEEC017A41F83320F4EE81
:1020D800C77AF1EE10FA36D9F4EEE67AF1EE10FA94
:1020E80058DB3A46F8EC017A46F83320F4EEC77A22
:1020F800F1EE10FA25D9F4EEE67AF1EE10FA50DB9B
:102108003A46F9EC017A40F83320F4EEC77AF1EE5A
:1021180010FA14D9F4EEE67AF1EE10FA48DB3A46F2
:1021280044F8332001339D427FF663AFFAEC017A1D
:10213800F4EEC77AF1EE10FABFD86246C3E76246FA
:10214800EEE76246DDE76246CCE77B682A4604A9EB
:1021580008A898474DE7B0EE676ABEEEE46A16EE47
:10216800102A32E7B0EE676ABEEEE46A16EE102A6D
:10217800A9E700BF080604240000003404FF7FBF5D
:1021880004FF7F3F82FF7F00000000382C0E0424EC
:102198007E0080FFB0EE676ABEEEE46A16EE102A93
:1021A800A0E7B0EE676ABEEEE46A16EE102AA8E76A
:1021B800B0EE676ABEEEE46A16EE102AB0E7B0EE3B
:1021C800676ABEEEE46A16EE102ACEE6B0EE676ADB
:1021D800BEEEE46A16EE102AD7E6B0EE676ABEEEE7
:1021E800E46A16EE102AE0E60B469200014618460D
:1021F80008F046BCF8B5044601220F4658484FF48B
:10220800804104F09FFA2368564A934263D02032F3
:10221800934260D0544DD5F8184805F1100095F850
:102228001C28BE00AB686408012A03EB870100EB99
:10223800840452D0A0420FD002469FED4C7A51F848
:10224800043B1BB207EE903AF8EEE77A67EE877A1E
:10225800E2EC017A9442F2D105F5826495F81E7891
:10226800D5F8102821462B6802FB07F29847D5F8C5
:10227800182895F81C18EB6852080129334404EB18
:10228800820240D094421ED09FED397A3948DFED62
:102298003A6A9FED3A6A08E0F4EEE67AF1EE10FA4F
:1022A80055DBA24243F8041B0DD0F4EC017A47F643
:1022B800FE71F4EEC77AF1EE10FAEDD80146A242AB
:1022C80043F8041BF1D100224FF480412448BDE8B3
:1022D800F84004F037BA2A4D9DE7A042BCD0024628
:1022E8009FED287A51F8043B83F40003A3F500031B
:1022F80007EE903AF8EEE77A67EE877AE2EC017A31
:102308009442EFD1A8E79442DDD0043B9FED187AC0
:102318001D4DDFED196A1D4808E0F4EEE67AF1EE8E
:1023280010FA0DDBA24243F8041FCCD0F4EC017A7A
:102338000146F4EEC77AF1EE10FAEED82946F1E735
:10234800B0EE676ABEEEE46A16EE101AEAE767EEC8
:10235800867AFDEEE77A17EE901A09B2A1E700BF78
:1023680000180258045801402C0E042400000038BC
:1023780004FF7FBF0280FFFF04FF7F3F00FEFF4690
:1023880008060424000000347E0080FF82FF7F00DE
:10239800014804F0B5BD00BF241D0424014804F021
:1023A800AFBD00BF9C1D0424014804F0A9BD00BFB7
:1023B800141E0424014804F0A3BD00BF7C1B0424A0
:1023C800D0E900232DE9F041802A614C614D86B0A7
:1023D80028BF8022C4F82008C5F8200818461E78AF
:1023E800DF7A93F80C80C4F81028C5F81028DA783A
:1023F800594984F81C281B792160296085F81C3804
:1024080000F0FAF955484FF0020C554916F0FD0F47
:1024180000F5006ED4F81028D5F8103802FA0CF23E
:1024280084F81EC803FA0CF385F81EC8C4F81828E7
:10243800C5F81838C5E9020E01F50060C4E90201C3
:1024480025D1032F84F81D7860D00F4600F2FF7362
:1024580040F6FE72DB1B934262D94FF40062002102
:1024680008F01CFB38464FF40062002108F016FB08
:102478004FF4007200213B4808F010FB4FF4007243
:102488000021394808F00AFB0023C4F81438731EE9
:10249800012B10D9002635484FF48042012300242F
:1024A8000670694632480394CDE9002303F052FFD1
:1024B80006B0BDE8F081A86840F6FE72EF6800F249
:1024C800FF7385F81D88DB1B934235D94FF40062F2
:1024D800002108F0E3FA38464FF40062002108F0C2
:1024E800DDFA4FF4007200212248A6F1020608F036
:1024F800D5FA4FF4007200211F4808F0CFFAB6FA57
:1025080086F600237609C4F81438C4E740F6013388
:10251800ADF80030009805F063F9D4E9020795E7B3
:10252800031F3A1F00F2FC70002143F8041F834286
:1025380042F8041FF9D19BE7031F3A1F00F2FC7011
:10254800002143F8041F984242F8041FF9D1C8E754
:10255800080604242C0E0424F12100081811003068
:102568001801003018060424180A042450160424FC
:10257800001802583C0E04243C120424044B002288
:102588001A7010B9034B19607047034B19607047F4
:1025980050160424080604242C0E042468B9084B99
:1025A800802993F81E2828BF8021C3F8101801FB42
:1025B80002F14900C3F818187047024BF0E700BF52
:1025C800080604242C0E042410B5C0B9234CD4F8F2
:1025D8002038B4F818285B685B7973B3E168204841
:1025E80001F0B8FDD4F82038B4F818285B68DB7916
:1025F80073BBA1681B48BDE8104001F03DBE1A4CF2
:10260800D4F82038B4F818285B689B7983B1E1685E
:10261800164801F09FFDD4F82038B4F818285B68F4
:102628001B7A7BB9A1681248BDE8104001F024BEAE
:10263800A1680E4801F020FEEDE7A168084801F006
:102648001BFECFE7E1680A48BDE8104001F082BDF3
:10265800E1680448BDE8104001F07CBD0806042488
:102668008C1E04248C1C04242C0E0424F41B042427
:10267800E41A0424084B1A78012A07D10368074A88
:10268800934206D02032934203D070470021FFF7CF
:10269800B1BD0020FFF7BEBB50160424045801400A
:1026A8000B4B1A78012A07D103680A4A934209D0CA
:1026B8002032934206D07047074BD3F818184908C0
:1026C800FFF798BD044BD3F818084008FFF7A2BBE2
:1026D800501604240458014008060424184BF0B589
:1026E800197983B0012929D0002211460024154800
:1026F80002230125144F4BF68036019200910760A2
:102708000662C461114EC460C0E90135C0E90544E0
:10271800C0E90B4401F05CFC0D4802234461C4612C
:10272800C46044630660DDE90012C0E90154C0E9F1
:102738000B4403B0BDE8F04001F04ABC0222D5E7E3
:102748005C160424F41B0424045C0140245C01404E
:10275800E41A042470B5254D82B0E978012936D0F1
:1027680000226B7A1146002B35D0012B3AD16B79B8
:102778001F48002B0CBF03230223436000244BF6A1
:102788008036022306628460C461C460C0E90544DF
:10279800C0E90B441648CDE9001201F019FCEB79A9
:1027A80014480125A3424FF0020344610CBF0326DD
:1027B8000226C4614660C46044638560DDE9001296
:1027C800C0E90B4402B0BDE8704001F001BC6B7A6F
:1027D8000222002BC9D16B790548B3FA83F35B0950
:1027E8004360CBE7024801234360C7E75C16042433
:1027F8008C1E04248C1C0424F8B5194F044600F1DF
:10280800200C3E462068103454F80C1C354654F809
:10281800082C103654F8043C64450FC5F2D12378CF
:10282800104A3370104C11493B78114D1460012B3C
:10283800104804F58064104A0D6010490460116066
:1028480005D0022B01D033B1F8BDFFF783FFBDE8F7
:10285800F840FFF743BFBDE8F840FFF77BBF00BF74
:102868005C1604248C1E0424045801408C1C042487
:1028780024580140F41B0424E41A0424245C014075
:10288800B14BD3F8E02042F010022DE9F04FC3F825
:10289800E02093B0D3F8E0200446AC4D02F01002DB
:1028A8000092009AD3F8E02042F00202C3F8E02038
:1028B800D3F8E02002F002020192019AD3F8E02056
:1028C80042F04002C3F8E020D3F8E02002F04002D2
:1028D8000292029AD3F8E02042F00802C3F8E020FE
:1028E800D3F8E02002F008020392039AD3F8E0201C
:1028F80042F00402C3F8E020D3F8E02002F004021A
:102908000492049AD3F8E02042F00102C3F8E020D0
:10291800D3F8E02002F001020592059AD3F8E020EE
:1029280042F48072C3F8E020D3F8E010026801F4A2
:102938008071AA4206910699D3F8E01041F080010F
:10294800C3F8E010D3F8E01001F08001079107996F
:10295800D3F8E01041F02001C3F8E010D3F8E010FC
:1029680001F02001089108990CD0794B9A4200F0A7
:102978000781784B9A423AD0774B9A4275D013B078
:10298800BDE8F08F754A1168002900F06E810025B6
:10299800DFF8E89101310DF1340809EB450A2F46BB
:1029A8005FFA85FB1160504615B96D4B597AA9B984
:1029B80000F052FB0646504600F056FB0223014643
:1029C800062230461192CDE90D134146CDE90F7725
:1029D80003F0C0FCBBF1040F00F00E81013509EBD8
:1029E800450A5FFA85FB5046002DDED0E0E75D4BD7
:1029F8001A6862B95449D1F8F00040F40000C1F8EF
:102A0800F000D1F8F01001F400010B910B99616806
:102A18000132554D4FF4804021F002011A60534AAB
:102A28004FF4805301294FF059072A604FF4807101
:102A38000CBF002240226B614FF480660023AA601D
:102A48004FF40032A8612846EB606B626F602E611C
:102A5800C5E9071203F062FF22683F4BC4F88450AF
:102A68009A42AC63C4F8805089D13E4B1A68002A58
:102A780000F0ED8000253E4E01320DF13408A946E4
:102A88004FF0020A30465FFA85FB1A60CDB9344B25
:102A98009B7A7BB900F0E0FA0746304600F0E4FA8A
:102AA8000A230D901095CDE90EA53846414611939D
:102AB80003F050FC013502365FFA85FB3046002DE5
:102AC800E5D000F0C9FA0746304600F0CDFABBF170
:102AD800020F02464FF00A0341463846CDE90D2A57
:102AE800CDE90F9900F0B180119303F033FCBBF1ED
:102AF800040FDFD163685A221E4D4FF4806623F01D
:102B080002031D496A604FF48052012B4FF4804044
:102B180029604FF480710CBF00234023A861284628
:102B2800AB600023C5E904624FF40032EB606B62CE
:102B3800C5E9071203F0F2FEC4F88450AC63C4F888
:102B4800805013B0BDE8F08F00440258045801408B
:102B580024580140045C0140245C014054160424BC
:102B68005C16042458160424141E04245800024039
:102B7800731604247C1B0424700002406916042484
:102B8800404A136863B94049D1F8F00040F4800026
:102B9800C1F8F000D1F8F01001F480010A910A9907
:102BA80061680133394D4FF4804021F00201136010
:102BB800374A4FF4805301294FF058072A604FF4E1
:102BC80080710CBF002240226B614FF480660023A5
:102BD800AA604FF40032A86128466F602E61EB604E
:102BE8006B62C5E9071203F099FE2268C4F88450A5
:102BF800AC63C4F88050BCE663685722254D4FF497
:102C0800806623F0020324496A604FF48052012B46
:102C18004FF4804029604FF480710CBF002340239B
:102C2800A8612846AB600023C5E904624FF400326E
:102C3800EB606B62C5E9071203F070FE2268C4F806
:102C48008450AC63C4F880508FE608232DE70E4902
:102C5800D1F8F00040F40000C1F8F000D1F8F0100D
:102C680001F400010C910C9904E7D3F8F00040F44A
:102C78008000C3F8F000D3F8F03003F48003099320
:102C8800099B84E654160424004402589C1D04241D
:102C980028000240241D04241000024010B5837847
:102CA80086B00446022B22D0032B1ED0012B1CD049
:102CB80000230293E378012B15D0022B13D00023B5
:102CC800039300232046049300F0C6F903462046E8
:102CD8001C4600F0C9F901A903462046019303F0F8
:102CE80039FB06B010BD0393EBE70293E2E711232B
:102CF8000293DFE738B5054600F0AEF904462846EA
:102D080000F0B2F901462046BDE8384003F014BD92
:102D180070B506460D4600F09FF90446304600F0AF
:102D2800A3F92A1E0146204618BF0122BDE87040BB
:102D380003F008BDF0B5194BC827194E02224FF011
:102D4800804403F10C050021002089B09A60DC6002
:102D5800802200245A620194C3E900674FF0FF36CD
:102D68000027C3E90401C3E906672846CDE90444FE
:102D7800CDE90644CDE9024401F08CFB4FF48053C1
:102D880004A92846049301F039FC01A928460194B6
:102D9800039401F0F1FC09B0F0BD00BF80160424D3
:102DA800400D0300014801F00DBC00BF8C1604243F
:102DB8000368B3F1804F00D07047084B82B0D3F856
:102DC800E82042F00102C3F8E820D3F8E83003F025
:102DD80001030193019B02B0704700BF00440258F1
:102DE800B6EE007A016060EE200A0276F7EE007A0D
:102DF800437680ED020A60EE870AC0ED047A87EE1A
:102E0800A07A10B40024C46044615DF8044B80EDDE
:102E1800017A70470268037E128807EE902AFBEE5B
:102E2800C87A1BB1B7EE007A77EE677AD0ED056AFB
:102E380090ED047A77EEE67A437E67EE877A0BB1F7
:102E4800F1EE677A90ED030A90ED017A77EEC07A99
:102E5800A7EE270A80ED030A704700BF30B5044685
:102E680085B04FF480751030ADF80820ADF80C101F
:102E78000180A2826582E5828DED000AADF80430FA
:102E8800FFF70CFF04F11400FFF708FF9DED000A9F
:102E98002046019900F09EF800224FF6FF73E26188
:102EA800238305B030BD00BF70B5067E04461030E0
:102EB8007600FFF71FFF034676B2657E04F1140023
:102EC8001E436D0026766DB2FFF714FF03462046B9
:102ED8001D43657600F09AF8237E002203F0030371
:102EE800E261022B06D0627E02F00302022A00D1C0
:102EF80033B170BD637E9B07FBD10123E36170BDD5
:102F08004FF0FF33E36170BD30B585B004469FEDE7
:102F1800110A9DF82050ADF80C100399ADF808205F
:102F28002A468DED000AADF8043005F0FFF99DED55
:102F3800000A2A4604F11C00029905F0F7F99DEDF4
:102F4800000A2A4604F13800019905B0BDE830406E
:102F580005F0ECB900007A4410B52DED028BF0EEC7
:102F6800608A0446B0EE418A05F004FA04F11C00B8
:102F7800B0EE680A05F0FEF9B0EE480A04F1380030
:102F8800BDEC028BBDE8104005F0F4B938B50C462D
:102F9800054691ED000A05F0EDF994ED010A05F1F9
:102FA8001C0005F0E7F905F1380094ED020ABDE8C8
:102FB800384005F0DFB900BF10B5044605F0ECF95C
:102FC80004F11C0005F0E8F904F13800BDE81040F0
:102FD80005F0E2B9B7EE007A01220346C7EE007A9F
:102FE80070B4002683B0C1F307250024ADF804109F
:102FF800C660417010449D70DC701A709A809A7196
:10300800C3ED027A03B070BCFFF748BE38B5447907
:10301800054683790130640064B2B3B1FFF76AFEF4
:10302800B0FA80F35B092343DBB2A3F17F026B7133
:10303800012A0ED9FF2B07D1D5ED037A95ED027A37
:1030480077EE877AC5ED037A38BDFFF753FE43B2B2
:10305800E9E70023EB6038BD024B027853F8220001
:10306800704700BF24AB0008024B427833F81200C7
:10307800704700BF04AB0008074B01EB410103EBAD
:10308800810110B44A680C688B68046042605DF87E
:10309800044B8360704700BF54AB0008704700BF03
:1030A800806B08B5FEF75AFE08BD00BF704700BF29
:1030B800836B5A6D12F0500F5A6D10B51DD11968F7
:1030C80042F400725A650A6812F0080FCA681BD0E9
:1030D80012F4406F0DD1CA6894040AD45A6D22F4D0
:1030E80080725A655A6DD10403D45A6D42F00102B8
:1030F8005A651846FFF7D2FF10BDD2060AD4DB6C1A
:10310800BDE81040DB6C18479007E7D01846FFF77A
:10311800C5FFF1E71846FFF7C9FF10BD806B08B57A
:10312800436D43F040034365836D43F004038365B7
:10313800FFF7BCFF08BD00BFF0B5002283B00192C5
:1031480090F85020012A00F01B81034601201A68DC
:1031580083F850009468660700F189800C68C4F30E
:103168001305002D40F08E80C4F3846C00FA0CF037
:103178004C681F26D569A7093440284302F1300559
:1031880007F00C07A640D0610CFA04F4785920EA3D
:103198000600204378519068450771D4956815F06A
:1031A800080548D10C6802F1140607208F684FEA19
:1031B800D45CC4F304540CF0040C00FA04FE07FABF
:1031C80004F4C64F5CF8060020EA0E0020434CF8D1
:1031D8000600386800F07040B0F1805F00F0C880E9
:1031E800D068D66810F0100F486940F0E980C6F33F
:1031F8008206760000FA06F60F69042F00F0C380F5
:1032080002F16004086854F827C000F0F8400CF098
:10321800004C40EA0C00304344F827000E694F7E0A
:1032280054F82600012F20F0004008BF4FF0004559
:10323800054344F826509068C40716D4CE68086839
:1032480006F01807A64CD2F8C050FC40C0F313078C
:10325800DFF8B8C2044025EA0705664544EA0504D4
:10326800C2F8C04046D0002816DB002003E05A6DA3
:1032780042F020025A65002283F8502003B0F0BDC6
:103288009068D8E794FAA4F5B5FA85F5C4F3846C88
:1032980005F01F04A0406BE792498A4200F0B6800F
:1032A80001F580718A4200F0B1808F4E8F4DA96878
:1032B800B46801F0E076E44304F00104002C00F067
:1032C800B3808B4CA04200F0E6808A4CA04200F00C
:1032D8001F81894CA042C8D14902C6D482498A427A
:1032E800C3D1AA68002022F0E072324342F480027F
:1032F800AA60C0E7002F69D090FAA0F4B4FA84F469
:10330800013404F01F04092C00F2A38090FAA0F401
:10331800B4FA84F490FAA0F50126B5FA85F50134DB
:103328003544A40605F01F0504F0F84406FA05F52F
:103338002C4390FAA0F0B0FA80F0304400F01F005F
:1033480000EB400000052043C70D02F11405C0F34F
:1033580004504FF0070C07F004078E680CFA00FCC5
:103368007C59864024EA0C003043785108687AE793
:10337800D6684869C6F38206760000FA06F63BE787
:10338800022003B0F0BD106E0D6800F0F840AC06E6
:10339800B0EB856F30D0506E00F0F840844226D0F4
:1033A800906E00F0F84084422BD0D06E00F0F840C8
:1033B80084427FF440AFD06E20F00040D0663AE7F8
:1033C800760806F0080600FA06F615E7800E441C93
:1033D80004F01F06092E2DD8A406012506EB460089
:1033E80004F0F84405FA06F600053443ABE7506EDE
:1033F80020F000405066D3E7106E20F000401066C1
:10340800C9E7906E20F000409066CEE73B49354E04
:103418003B4C0D468968B768A46801F0E0763C43E8
:10342800E44304F0010449E75A6D012042F0200208
:103438005A6520E706EB46000127A5061E3807FA5D
:1034480006F605F0F8450005354340F000702843BE
:103458007AE790FAA0F5B5FA85F590FAA0F4012676
:10346800B4FA84F401353444AD0604F01F0405F0C1
:10347800F84506FA04F4254390FAA0F4B4FA84F463
:10348800344404F01F0404EB4404A4F11E000005B6
:1034980040F00070DBE708023FF5E7AE12498A42C8
:1034A8007FF4E3AE174AA9681268174821F0E07163
:1034B80092093143A0FB020241F400019209A9607C
:1034C80052000192019A002A3FF4CFAE019A013AC4
:1034D8000192019A002AF9D1C7E600BF0010005CEA
:1034E800FFFF0F00002002400060025800630258EE
:1034F800000084CB000052C70000B8CF0023024070
:103508000021024004000024632D3E050000FF470F
:1035180011F080707FF4A9AE05498A427FF4A5AE08
:10352800AA6822F0E072324342F08072AA60A2E6F2
:103538000060025803689A68D20701D500207047D6
:103548009968214A114270B504462AD199681F4AE0
:103558000A4042F001029A6004F094F823681C4A79
:103568000546934226D002F58072934222D0194A2A
:103578009268164E0AE09A68324042F001029A6058
:1035880004F080F8401B02280BD823681A68D20779
:1035980017D49A68D107EED504F074F8401B0228B6
:1035A800F3D9636D012043F010036365A36D0343F2
:1035B800A36570BD084A9268D006DAD0074A9342DC
:1035C800D7D1002070BD00BF3F000080C0FFFF7F43
:1035D80000200240006302580023024000210240FC
:1035E8002DE9F0413B4D044600680F461646A842B7
:1035F80019D0394B984216D0384DAB6880684207CD
:1036080016D494F85020012A12D003F01F08012381
:10361800B8F1090F84F850300DD90023012084F83F
:103628005030BDE8F0812E4DAB6880684207E8D580
:103638000220BDE8F08140F2212323FA08F3DB439E
:1036480013F00105E9D12046FFF774FF00283AD1AD
:10365800626D244B2568134043F480736365B8F1A9
:10366800000F02D01C4B9D4203D0636D23F48013DE
:103678006365636D13F4805329D0A36D23F00603AB
:10368800A365E06C4FF0000CDFF868E033463A467B
:103698001C21154F154EC0F83CE00764C66429602C
:1036A80005F1400184F850C06E6846F010066E605F
:1036B80003F0FEFA22680E4B91680B4043F00403B6
:1036C8009360BDE8F08184F85050BDE8F081A365AF
:1036D800D7E700BF002002400021024000630258E3
:1036E80000230240FEF0FFFFA93000082531000842
:1036F800C0FFFF7FB930000838B503689A689107A2
:1037080002D59B68002038BD9A68D20723D59A68ED
:10371800044602F00D02012A08D0636D012043F02F
:1037280010036365A36D0343A36538BD986803213F
:103738000A4A024042F002029A60196003F0A2FFAE
:10374800054604E003F09EFF401B0228E5D82368E5
:103758009B68DB07F6D4002038BD00BFC0FFFF7FA1
:1037680038B55A4A04460368934249D002F5807234
:10377800934245D0564B9B6813F4403F14BF012336
:103788000023EBB101F07EFC63680546B3F5003F0A
:1037980000F08B80B3F5403F73D0B3F5803F00F065
:1037A800848003F087FF41F2030398421FD8494BF6
:1037B8009D4260D92268936843F48073936038BD52
:1037C8004FF4002002F0E4FC63680546B3F5101FCF
:1037D80075D01DD9B3F5201F5BD0B3F5301FE0D1EC
:1037E80003F068FF41F20303984244D92D0A3A4B8B
:1037F8009D422ED82268936823F44073936038BDA5
:10380800364B9B6813F4403F14BF01230023B8E7ED
:10381800B3F5E01F3FD004D9B3F5001FC1D1450966
:10382800BFE7B3F5801F06D00AD9B3F5A01F02D0B1
:10383800B3F5C01FB5D19B0C5B00B5FBF3F5B0E742
:10384800B3F5002FF7D023F40022B2F5802FF2D081
:10385800A7E7234B234A2B4493421ED9224B234AE2
:103868002B449342226893682BD823F4407343F483
:103878000073936038BD2268936823F48073936063
:1038880038BD850803F016FF41F203039842AED80D
:103898008DE7C50985E7050983E72268936823F45E
:1038A800407343F48073936038BD1B0CB5FBF3F58C
:1038B80003F000FF41F20303984298D877E785099F
:1038C8006FE743F44073936038BD00BF00200240A7
:1038D80000630258002D3101105E5F000023024092
:1038E800EFA1A0FF0F5E5F00DF4341FF1FBCBE00DA
:1038F80070B5002382B00193002800F0CF80456D99
:103908000446002D00F0B980226893689D0003D515
:103918009168704B0B4093609368D80015D46E4B38
:1039280090681B686D4D9B096D49A5FB03530140C9
:103938009B0941F0805191600193019B2BB1019B40
:10394800013B0193019B002BF9D19368D90024D442
:10395800636D012543F010036365A36D2B43A365D5
:10396800936813F0040F636D1DD1DB061BD4636DE0
:1039780023F4817343F0020363659368DE0728D458
:10398800584B9A4217D003F580739A4213D0564B7E
:103998009B68D9071DD4554A15E09368002513F094
:1039A800040F636DE1D0636D012543F010032846D1
:1039B800636502B070BD4B4A4D4B92689B681343D8
:1039C800D80706D44B4A9368616823F47C130B43E9
:1039D800936003F06FFE41F20303A1689842237FCE
:1039E80051D8667D1A04206B42EA463202430A43E4
:1039F800012B03D1236A013B42EA4342636A23B1A4
:103A080003F47873A16A0B431A4323683A49D868C8
:103A180001400A43DA609A6812F0040F9A681CD1D0
:103A280012071AD4D968354A207D0A40E16A42EA69
:103A380080320A43DA6094F83820012A3AD01A69A9
:103A480022F001021A611A692046616B22F0704265
:103A58000A431A61FFF784FE2368E268012A21D02D
:103A68001A6B22F00F021A63636D284623F00303D2
:103A780043F00103636502B070BDFEF723F9A56545
:103A880084F8505040E71029ABD1607D1A04216BAF
:103A980042EA40320A4342F01C02A9E701252846BF
:103AA80002B070BD196BA26921F00F01013A0A43F7
:103AB8001A63D9E71869124ED4E910210640A06CA0
:103AC8000A43E16B3243024342EA014242F00102F7
:103AD8001A61B8E7C0FFFF5F04000024632D3E05AC
:103AE800C0FFFF6F002002400060025800630258C8
:103AF800002102400023024003C0F0FFFCBFFFFF8B
:103B08001EF800FCF0B50D4690F8501083B0002662
:103B1800012901963ED001230446174680F850300B
:103B2800FFF7EAFD636DE0B91C4E07F0804221689B
:103B380005F480351E401A4B1A4F46F0020666659A
:103B48008E68334013432B4343F000438B608B68EC
:103B5800002B0EDB636D23F0030343F00103636561
:103B680002E043F010036365002384F8503003B08B
:103B7800F0BD019B01330193019BBB42E7D9636D03
:103B88000022012023F0120384F8502043F0100390
:103B98006365ECE7022003B0F0BD00BFFDEEFFFF58
:103BA800C0FFFE3FFF955A55F0B490F850200E68BC
:103BB800012A49D00346294A01201C6883F850008D
:103BC800944208D05A6D002142F0200283F8501028
:103BD8005A65F0BC7047224DAA6852070AD5A268F8
:103BE8005A6D012042F020025A65002283F85020C5
:103BF800F0BC7047A06810F00400F1D1C6B1DFF83E
:103C080068C04F68DCF8082022F440423A43CCF8F8
:103C18000820A468AA682243D40713D48A68DCF869
:103C280008401049164321400E43CCF80860DCE7F1
:103C38000D498A6822F440428A60A068AA68024353
:103C4800D00704D50020D0E70220F0BC70478C686C
:103C58003046044A22408A60C7E700BF002002407D
:103C680000210240E0F0FFFF00230240B24B016850
:103C780099422DE9F04105461FD0203399421CD0C6
:103C880003F57873994259D02033994256D003F5F9
:103C98007873994200F020812033994200F01C810A
:103CA80095F89130A54E03F0FF026BB9284685F8C8
:103CB8009020FEF7E5FD296806E0A14E95F89130C1
:103CC80003F0FF02002BF1D09E4B9F481B680A6847
:103CD800A0FB030322F480321B0B0A609B0023B372
:103CE8000C68013B14F48034F9D1EB680222012BF3
:103CF80085F8912000F01A81934219BF17460320D6
:103D08002320222715BF4FF0010C4FF0210C002271
:103D18002022AB68013B042B00F25781DFE813F047
:103D2800D1001100D8001000D400D5F8943001203B
:103D380043F04003C5F89430BDE8F081834EBDE7F9
:103D48003A464FF400682B6A3260002B44D07A4B15
:103D5800994200F029817E48081AB0FA80F040099B
:103D6800002840F021817B4B994200F017812033D5
:103D7800994200F01381784B994200F00981203371
:103D8800994200F00581754B994200F01381744BFC
:103D9800994200F01581AB69B3F5002F00F0EE8071
:103DA800AB6A00EB80002A6AB3F1806F4FEA4003E8
:103DB8000CBF0221012102FB01F21202B3FBF2F354
:103DC800684AA2FB0312D20802EB8201A3EB41036B
:103DD800092B08BF01326A626B6833F002032B6D4E
:103DE80040F09F80012B14BF4FF40074002403F0AF
:103DF80061FC6B68B0F5005FD5E9111243EA010375
:103E08007FD31A43EB6CE96A1A43A8692B680A4303
:103E18006969AF6A0A431968D5F824C00243524851
:103E28003A430840296918600A4319684FF220008C
:103E38004E4F0A4342EA0C5242EA080222434C4CD3
:103E48001A605968EA690C40296B11436A6B5C6017
:103E580011435C686A6E2143EC6D22432C6E5960F5
:103E6800224399686C6D0F40A96D013C01399F6030
:103E780022439C6842EA0122A96E2243EC6E9A60B2
:103E880041EA0402D9686C6F0840296F42EA04428B
:103E9800294C0139D860D868A34242EA012242EA93
:103EA8000002DA601AD02D4A934217D0002301226B
:103EB800C5F89430184685F8903085F89120BDE80B
:103EC800F0814FF480683EE702464FF400683AE715
:103ED80062464FF4006836E7264EEFE6736C23F02F
:103EE8000103736495F83830012BDFD1D5E90F232E
:103EF800013A43EA02137364736C43F00103736479
:103F0800D4E7E96C1A4368690A43E96A2B680A43EB
:103F1800AF691968024318483A430840D5E909C10E
:103F280081E7012B08BF4FF4007460E713201227C4
:103F38004FF0110C1022ECE60458014000540058D0
:103F480000580140040000241BECCB95005C0140A4
:103F580024580140045C01400460014004540058A6
:103F680024540058CDCCCCCC10C005F00080F8FF0C
:103F7800F01FFFFF0060014010C005F800EB800053
:103F8800296A6A6D430002FB01F2B3FBF2F317E7FB
:103F98004FF4007002F0FCF82968F4E64FF4007062
:103FA80002F0F6F82968E6E64FF4807002F0F0F8BF
:103FB8002968D8E64FF4806002F0EAF82968E6E656
:103FC8004FF4006002F0E4F8E5E64FF00008BAE6C6
:103FD8000229F8B5044635D9C81E012830D86568C5
:103FE80000204FF40036236735F002054FF4802592
:103FF80060640CBF0127074604294FF6FF71276547
:104008000CBF01270D27E064E065A765A06661671E
:10401800C4E91865032A13D8DFE802F0484F55377A
:1040280023684B4A934205D002F1C052A2F582326E
:10403800934205D16368012B02D1636C002B30D009
:104048000120F8BD45680020236735F0020560644B
:10405800E0644FF4803508BF0646A0664FF6FF704F
:1040680018BF0126E565606713F001002665E7D1F2
:104078004D1E012D2ED84FF40035C4E91850032ADF
:10408800DED8DFE802F05A4B3B315B01E0218022A9
:104098006365A164E26603F00DFB94F83830012BE8
:1040A800BED02046BDE8F840FFF7E0BD1B018021E7
:1040B80040226365A164E266EDE780225B01A264A9
:1040C8006365E266E7E75B01C02180226365A1645E
:1040D800E266E0E74FF48025C4E91805032AAFD863
:1040E800DFE802F02B1C0C025B08E02080219A011B
:1040F800A0645B01E166C4E91523CCE75B08C02531
:10410800802002294FEA8312A5644FEA4313E06630
:10411800C4E91523BFD10823A366BCE75B08802246
:1041280002294FEA8310A2644FEA4313E266C4E906
:104138001503B0D11023A366ADE75B0880204021AA
:104148005A01A0641B01E166C4E91523A3E700BF77
:10415800045801402DE9F8430F460446154603F07C
:1041680091FA002F62D0B5FA85F84FEA5818002D59
:104178005CD094F89130012B5FFA83F951D194F80F
:104188009030012B4DD0424606464FF0120CD4F821
:10419800800065F30F022B46C4F89480394665F316
:1041A8001F42324D84F89090E267314AA76784F83D
:1041B80091C00564C2642F4D2268C0F850801C323B
:1041C800C56302F075FD00283ED1636C082B636857
:1041D80031D0052161202268023B012B98BF01469E
:1041E80013690B431361136843F40033136006E04B
:1041F80003F048FA831BB3F57A7F2AD822685569F9
:1042080015F4E025F4D01368DB0303D4136843F4F2
:10421800803313604FF00009484684F89090BDE859
:10422800F8834FF002094846BDE8F8834FF00109CA
:104238004846BDE8F88323F00202012A0BBF152186
:10424800052171206120C6E7484684F89080BDE8C2
:10425800F883D4F894304FF0030984F8905043F071
:1042680040034846C4F89430BDE8F883B5430008D5
:104278003144000851430008F8B500294FD0B2FA7C
:1042880082F513466D09002A49D090F8912004461A
:10429800012AD6B240D190F89020012A3CD02F466E
:1042A80080F8906081674FF0220C63F30F07C0F825
:1042B80094500A46D0F8840063F31F471E4984F8D7
:1042C80091C0E76701641D491D4FC16421680565F8
:1042D8001C31C76302F0ECFCD0B923681A68D2031A
:1042E80003D41A6842F480321A60626C082A626841
:1042F80018D005206125023A1969012A98BF284675
:10430800002501432E4619611A6842F400321A60EA
:10431800304684F89050F8BD02263046F8BD012694
:104328003046F8BD22F0020101290BBF15200520F7
:1043380071256125DFE700BF2144000831440008EA
:10434800C1430008704700BF38B5C369806BB3F537
:10435800807F19D003680024416C1A680829A0F8E6
:104368007E4022F400321A60426810D06FF0610576
:104378006FF00504023A1969012A98BF2C460125F5
:104388002140196180F89150FFF7DCFF38BD22F019
:10439800020101290BBF6FF071056FF061056FF025
:1043A80015046FF00504E5E7704700BF806B08B59A
:1043B800FFF7FAFF08BD00BF38B5C369806BB3F5D6
:1043C800807F19D003680024416C1A68082922F4F8
:1043D80000321A604268A0F87E4010D06FF0610584
:1043E8006FF00504023A1969012A98BF2C46012585
:1043F8002140196180F89150FEF752F938BD22F03A
:10440800020101290BBF6FF071056FF061056FF0B4
:1044180015046FF00504E5E7806B08B5FEF72AF987
:1044280008BD00BF704700BF10B5846B03F0C6F825
:10443800022823D0D4F89420216842F08002134B3C
:104448001348C4F894201B680A68A0FB030322F4ED
:1044580000321B0B0A600A689B0022F480320A6053
:104468006BB10A68013BD203FAD40122002320462B
:1044780084F89120A4F87E30FFF7D4FF10BDD4F85B
:10448800943043F04003C4F89430EEE7040000246D
:104498001BECCB95002800F08680F8B590F83D30ED
:1044A800044603F0FF02002B5FD0226802233F4935
:1044B800B2F1804F84F83D30A2EB01011368B1FAE4
:1044C80081F14FEA511126D029BB3948824222D0C6
:1044D80000F5806082421ED0364F374DD71BAA4266
:1044E800B7FA87F74FEA571744D0002F42D133481D
:1044F80033498A4218BF824247D001F580618A4217
:1045080043D0A16923F08003E0680B43616813601E
:10451800D062916223E0274F23F07003A568D71B70
:104528002B43B7FA87F77F09206923F44073A569FD
:104538000343E668606823F080032B431360D66268
:10454800906251B94FB91D491D4B9A4218BF8A4212
:1045580003D003F580639A4201D163691363012391
:104568000020536184F83D30F8BD80F83C20FEF708
:104578001FFC9AE7104823F07003A568824243EABB
:104588000503D1D0002FCFD1B1E7216923F44073BF
:10459800A5690B43E068616823F080032B4313602F
:1045A800D0629162CFE70120704700BF0000014050
:1045B8000004004000040140000C0040004001409D
:1045C8000044014010B4016802240B4A034680F8F5
:1045D8003D4088680240062A06D0B2F5803F03D0E5
:1045E8000A6842F001020A600122002083F83D2097
:1045F8005DF8044B704700BF0700010090F83C309D
:10460800012B7DD0024602230068F0B4012482F811
:104618003D3082F83C40544C85680B682C40602B38
:1046280084606FD01DD9B3F5005F59D042D94F4986
:104638008B4206D038D94E498B4202D010318B427A
:1046480006D184684B4921400B4343F0070383603C
:1046580000230121184682F83D1082F83C30F0BC56
:104668007047402B67D019D9502BF1D1036A056ADE
:104678004C6823F00A0325F00105CE681C433D4B26
:104688000562816921F0F00141EA06118161046245
:1046980081680B4043F057038360D9E7202BD0D0C3
:1046A8001AD9302BD4D1CCE723F01001B1F5801FF3
:1046B800CED1C6E7702BCBD1CC68D1E90153816844
:1046C8002B4321F47F4143EA04230B43836083682F
:1046D80043F077038360BBE733F01001B8D1B0E74C
:1046E800D1E90153CC682B43816843EA042321F4C0
:1046F8007F410B438360836843F480438360A7E76B
:1047080002207047056A4E6825F01005CF68194BDE
:1047180005628469016A24F4704421F0A00144EA26
:10472800073441EA06118461016281680B4043F055
:10473800670383608CE7036A056A4C6823F00A0301
:1047480025F00105CE681C430A4B0562816921F0FA
:10475800F00141EA06118161046281680B4043F06F
:104768004703836074E700BF8800CEFF2000100075
:10477800300010008FFFCFFF90F83C20012A26D090
:104788000222034670B40468124D80F83D20AC4202
:104798006268A06816D005F58065AC4212D00D6835
:1047A80020F08000896822F0700201262A43014324
:1047B800002562602846A16083F83D6083F83C507C
:1047C80070BC704722F470024D682A43E7E7022064
:1047D800704700BF00000140002800F0EA81F8B5EA
:1047E80003680446D9072ED5B2490A69896A02F0D6
:1047F8003802102A00F00481182A00F0FC8063684F
:10480800B3F5803F00F02481002B00F06281B3F5FE
:10481800A02FA84B1A6800F03C8222F480321A605C
:104828001A6822F480221A6002F02CFFA14E054675
:1048380005E002F027FF401B642800F24881336836
:104848009B03F6D52368980700F18980D90630D5EF
:10485800984A1369926A03F03803082B00F0E08045
:10486800182B00F0D880E369002B00F06F81914B82
:104878001A681E4642F080021A6002F003FF0546DD
:1048880005E002F0FFFE401B022800F22081336899
:10489800DB05F6D502F00EFF41F20303984200F261
:1048A8001A827368226A23F0F84343EA82637360CA
:1048B80023681D0717D56369002B00F021817D4B04
:1048C8005A6F1E4642F001025A6702F0DBFE0546A7
:1048D80005E002F0D7FE401B022800F2F880736F53
:1048E8009807F6D523689A0617D5A369002B00F018
:1048F8001A81704B1A681E4642F480521A6002F000
:10490800C1FE054605E002F0BDFE401B022800F28C
:10491800DE8033689F04F6D52368590700F19E802E
:10492800636AD3B1634A116901F03801182970D05C
:10493800022B1368154623F08073136000F043813F
:1049480002F0A0FE044605E002F09CFE001B0228CF
:1049580000F2BD802B689B01F6D40020F8BD554AB3
:104968001369926A13F038032AD1524BE1681B6825
:104978005A0701D500294CD04E4A1368164623F031
:1049880019030B43136002F07DFE054605E002F0B3
:1049980079FE401B022800F29A8033685B07F6D53F
:1049A80002F088FE41F2030322699842736800F21C
:1049B800F98023F47C3343EA02337360236845E7C4
:1049C800182B00F0EB80E268002A00F0D380394908
:1049D8000B680E4623F0190313430B6002F052FED6
:1049E800054604E002F04EFE401B02286FD83368EB
:1049F8005F07F7D5D4E701F0030102297FF4FFAE82
:104A08002C4A126892037FF51EAF6268002A7FF471
:104A18001AAF0120F8BD02F00302012A7FF423AF88
:104A2800244B1B68DA0502D5E369802BF1D102F02B
:104A380041FE41F203031F4A9842216A00F2BB80FB
:104A4800536823F0F84343EA81635360236830E7EF
:104A5800184A136843F480331360E5E6164B1A6866
:104A68001E4642F480721A6002F00CFE054604E00D
:104A780002F008FE401B642829D83368DA05F7D508
:104A8800A368012B00F03081002B00F00A81052B70
:104A9800084B1A6F00F02E8122F001021A671A6F74
:104AA80022F004021A6702F0EDFD024E41F2883747
:104AB800054608E0004402580048025802F0E2FDAA
:104AC800401BB84203D8336F9B07F7D528E703206C
:104AD800F8BD8C4B1A681E4622F480321A601A6898
:104AE80022F480221A6002F0CDFD054604E002F0AF
:104AF800C9FD401B6428EAD833689F03F7D4A1E6B0
:104B0800804B5A6F1E4622F001025A6702F0BAFD26
:104B1800054604E002F0B6FD401B0228D7D8736FA3
:104B28009907F7D4DEE6774B1A681E4622F48052BE
:104B38001A6002F0A7FD054604E002F0A3FD401B41
:104B48000228C4D833689804F7D4E5E66D4B1A6890
:104B58001E4622F080021A6002F094FD054604E029
:104B680002F090FD401B0228B1D83368DF05F7D466
:104B780023689EE6634B1A681E4622F001021A60FB
:104B880002F080FD054604E002F07CFD401B02288F
:104B98009DD833685807F7D4236857E691077FF400
:104BA80012AFE2E623F0FE4343EA02637360236830
:104BB8004CE601207047D36823F07C5343EA016335
:104BC800D360236875E602F05DFD064605E002F055
:104BD80059FD801B02283FF67AAF2B689901F6D45D
:104BE800AA6A494BA06A1340E26A48490343454E02
:104BF80043EA0213AB62276BD4E90D32013F501E22
:104C0800013BE26BC7F308075B020004013A9BB261
:104C180000F4FE001206034302F0FE423B43134336
:104C28002B63EB6A23F00103EB626A6BA36C114000
:104C380041EAC3016963EB6A226C23F00C03134356
:104C4800EB62EB6A626C23F002031343EB62EB6ADC
:104C580043F48033EB62EB6A43F40033EB62EB6AB4
:104C680043F48023EB62EB6A43F00103EB622B68A9
:104C780043F080732B6002F005FD044605E002F066
:104C880001FD001B02283FF622AF33689A01F6D5D2
:104C980063E642F480221A601A6842F480321A608D
:104CA800C2E5184B41F288371A6F1E4622F00102FE
:104CB8001A671A6F22F004021A6702F0E3FC05462D
:104CC80005E002F0DFFC401BB8423FF600AF336F4F
:104CD8009807F6D424E6F368226A23F07C5343EA63
:104CE8000263F3602368E4E5064A136F43F00103A7
:104CF8001367D8E642F004021A671A6F42F00102FD
:104D08001A67D0E6004402580CFCFFFF0700FFFFBB
:104D1800474A136903F03803102B04D0182B0DD021
:104D28001BB14448704744487047136899064AD5F0
:104D380013684248C3F3C103D8407047936A30B43C
:104D4800946AD16A14F47C7FC4F30510556B38D08B
:104D5800C5F3CC0501F0010103F0030301FB05F1E4
:104D6800012B07EE901AB8EEE77A02D0022B2CD06E
:104D780093B307EE900A9FED325AF8EEE77A136B79
:104D8800C5EE276ADFED2F5AC3F3080307EE903A02
:104D9800B7EE006AF8EEE77AE7EE257A77EE867ADC
:104DA80066EEA76A224B1B6BC3F34623013307EE5B
:104DB800903AB8EEE77AC6EE877AFCEEE77A17EE15
:104DC800900A30BC70471D48704707EE900A9FED67
:104DD8001E5AF8EEE77AD2E713689B0620D51368C7
:104DE80007EE900A1549B7EE005AC3F3C100F8EE72
:104DF800E77A136BC140DFED134AC3F3080306EEED
:104E0800101A06EE903AB8EEC66AF8EEE66AC6EEF2
:104E1800275AE7EE246A76EE856A66EEA56AC1E748
:104E280007EE900A9FED095AF8EEE77AA7E700BF68
:104E38000044025800093D000024F4000090D0030B
:104E48000024744A000000390024744B0024744C78
:104E5800002800F00381874A136803F00F038B4290
:104E68002DE9F04104460D460CD2136823F00F03D8
:104E78000B431360136803F00F038B4202D0012029
:104E8800BDE8F08123685F070BD57B4920698A69F3
:104E980002F07002904204D98A6922F0700202433B
:104EA8008A611E070BD574496069CA6902F07002ED
:104EB800904204D9CA6922F070020243CA61D80636
:104EC8000BD56D49A069CA6902F4E062904204D921
:104ED800CA6922F4E0620243CA6199060BD56649A1
:104EE800E0690A6A02F07002904204D90A6A22F064
:104EF800700202430A629A0740F1A2805E48E168A4
:104F0800826902F00F02914204D9826922F00F02ED
:104F18000A438261D80731D5574AA168936923F4B7
:104F280070630B43936161681368022900F09880ED
:104F3800032900F08F80012900F0988058079ED53A
:104F48004D4A41F288381369174623F007030B438B
:104F5800136102F097FB064605E002F093FB801B05
:104F6800404500F281803B69626803F03803B3EB87
:104F7800C20FF2D12368990706D5E1683E488269D5
:104F880002F00F028A425FD83A490A6802F00F021B
:104F9800AA420AD90A6822F00F022A430A600A685C
:104FA80002F00F02AA427FF46AAF5A070BD53249C2
:104FB80020698A6902F07002904204D28A6922F05C
:104FC800700202438A611F070BD52B496069CA69C1
:104FD80002F07002904204D2CA6922F070020243C1
:104FE800CA61DE060BD52449A069CA6902F4E062E9
:104FF800904204D2CA6922F4E0620243CA619D0663
:105008000BD51D4AE169136A03F07003994204D273
:10501800136A23F070030B431362FFF779FE164AF5
:10502800164C034692690F201549C2F30322A25C6D
:1050380002F01F02D340BDE8F0410B6002F0C2BA93
:10504800DA073FF569AF9FE7826922F00F02114343
:10505800816199E79F013FF573AF10E70120704721
:105068009B033FF56DAF0AE7032009E7DE053FF52F
:1050780067AF04E70020005200440258B4AA0008B1
:105088000400002408B501F04FF9064B06499B6956
:10509800064A03F00F03CB5C03F01F03D8401060EF
:1050A80008BD00BF00440258B4AA00080800002444
:1050B8003B4AF8B5936A03F00303032B69D01368DE
:1050C80006460F46144623F08063136002F0DAFAAE
:1050D800054604E002F0D6FA431B022B57D8236892
:1050E8001A01F7D4A36A326823F47C332D4943EAC2
:1050F8000233A3627568D6E90232013D501E013BB6
:105108003269C5F308055B020004013A9BB200F45A
:10511800FE001206034302F0FE422B431343A3632F
:10512800E36A726923F0C0031343E362E36AB26976
:1051380023F020031343E362E36A23F01003E362DE
:10514800E26BF369114041EAC301E163E36A43F0AA
:105158001003E362E36AF7B1012F0CBF43F4801335
:1051680043F40013E3620E4B1A681D4642F0806256
:105178001A6002F087FA044604E002F083FA001B82
:10518800022804D82B681B01F7D50020F8BD03209E
:10519800F8BD0120F8BD43F40023E362E3E700BF54
:1051A800004402580700FFFF3B4AF8B5936A03F032
:1051B8000303032B69D0136806460F46144623F0F1
:1051C8008053136002F05EFA054604E002F05AFAD2
:1051D800431B022B57D823689A00F7D4A36A326876
:1051E80023F07C732D4943EA0253A3627568D6E91C
:1051F8000232013D501E013B3269C5F308055B02CE
:105208000004013A9BB200F4FE001206034302F0C8
:10521800FE422B4313432364E36A726923F4406319
:105228001343E362E36AB26923F400731343E3624E
:10523800E36A23F48073E362626CF369114041EA24
:10524800C3016164E36A43F48073E362E36AF7B11C
:10525800012F0CBF43F4000343F08073E3620E4B4D
:105268001A681D4642F080521A6002F00BFA044692
:1052780004E002F007FA001B022804D82B689B0000
:10528800F7D50020F8BD0320F8BD0120F8BD43F490
:105298008003E362E3E700BF004402580700FFFF12
:1052A8002DE9F8430368044613F000661CD0426EEB
:1052B800B2F5001F00F0B98423D8002A00F0CE838D
:1052C800B2F5801F20D102210430FFF7F1FE064617
:1052D800002E40F06E84626E2368AB480026016D94
:1052E80021F440110A430265DD0511D5626D042AD7
:1052F80000F20785DFE812F0690470048004CA022E
:10530800CA02B2F5401FE8D0DD054FF00106EDD422
:10531800354698051BD5A26D802A00F0758400F2E9
:10532800EC80002A00F08883402A40F0ED800021BC
:10533800201DFFF7BDFE23680546002D40F072834F
:105348009149A06D0A6D22F4E07202430A6559057D
:105358001FD5D4F8A420B2F5800F00F0448400F2E1
:10536800D680002A00F08083B2F5001F40F0D78075
:105378000021201DFFF79CFE23680546002D40F004
:1053880055838149D4F8A4008A6D22F4600202434F
:105398008A651A051FD5D4F8A820B2F1007F00F05D
:1053A8000B8400F2BF80002A00F04C83B2F1807FAA
:1053B80040F0C0800021201DFFF77AFE23680546D3
:1053C800002D40F031837049D4F8A8008A6D22F08E
:1053D800E06202438A659F0118D5A26C202A00F07A
:1053E800B68300F2AA803AB1102A40F0A980664933
:1053F800CA6A42F40032CA62002D40F0438362490F
:10540800A06CCA6C22F030020243CA64D8041DD5CD
:10541800E26DB2F5005F00F0008400F29480002A8B
:1054280000F01683B2F5805F40F095800021201DC2
:10543800FFF73EFE23680546002D40F0FB825249E7
:10544800E06D0A6D22F4E04202430A6599041AD518
:10545800226EB2F5003F00F068837FD84AB1B2F5FA
:10546800803F40F083800121201DFFF721FE236843
:105478000546002D40F019834349206E0A6D22F439
:10548800E02202430A655A041BD5D4F8AC20B2F1D5
:10549800005F00F065836CD842B1B2F1805F70D1D3
:1054A8000121201DFFF704FE23680546002D40F06A
:1054B800FE823549D4F8AC008A6D22F0E0420243FE
:1054C8008A651F040DD5E26EB2F1805F00F0378364
:1054D800B2F1005F00F0E681002A00F0E9810126C0
:1054E8003546D8015CD5626C032A00F21084DFE8E7
:1054F80012F0530041034D005300C02A3FF41DAF82
:10550800B2F5807F3FF419AF012635461FE7B2F5A3
:10551800C00F3FF433AFB2F5000F3FF42FAF0126B1
:10552800354636E7B2F1407F3FF44AAFB2F1806FBB
:105538003FF446AF012635464DE7302A3FF45CAFCD
:105548000126354662E7B2F5405F3FF475AFB2F524
:10555800804F3FF471AF0126354677E722F480315A
:10556800B1F5802F85D0B2F5403F82D0012635466F
:1055780089E722F08051B1F1804F97D0B2F1405FB6
:1055880094D0012635469CE7004402580221201D8C
:10559800FFF78EFD23680546002D00F06B822E462E
:1055A800590200F1EB81DF0739D5A26F282A00F2F2
:1055B8006A81DFE812F0300068016801680168015B
:1055C800680168016801570368016801680168019A
:1055D80068016801680129006801680168016801BB
:1055E80068016801680130006801680168016801A4
:1055F8006801680168013000680168016801680194
:105608006801680168013000012104F12400FFF7F6
:10561800CBFD23680546002D00F055822E469807DD
:1056280016D5626F052A00F26F83DFE812F00D00CD
:10563800110306000D000D000D00012104F12400E6
:10564800FFF7B2FD23680546002D00F026822E469E
:10565800590717D5D4F89020052A00F24F83DFE8C0
:1056680012F00D00ED0206000D000D000D000121E5
:1056780004F12400FFF798FD23680546002D00F08B
:1056880003822E469A061DD5D4F88C20B2F1005F0D
:1056980000F0418200F225814AB1B2F1805F40F00A
:1056A8002A810021201DFFF703FD23680546002DF0
:1056B80040F01182B649D4F88C004A6D22F0E042DD
:1056C80002434A655F061DD5D4F89820B2F5006FED
:1056D80000F00D8200F212814AB1B2F5806F40F0FD
:1056E80017810021201DFFF7E3FC23680546002DE4
:1056F80040F0E381A649D4F898008A6D22F4E0527C
:1057080002438A6518061DD5D4F89C20B2F5804F4F
:1057180000F0F78100F2FF804AB1B2F5005F40F077
:1057280004810021201DFFF7C3FC23680546002DD6
:1057380040F0C1819649D4F89C008A6D22F46042F9
:1057480002438A6519070BD5D4F88010B1F5805F3C
:1057580000F024828E48426D22F440520A4342658A
:10576800DA060BD5D4F89410B1F5807F00F00B82DF
:105778008748826D22F440720A4382651F030ED562
:10578800D4F8A010B1F5803F00F0E580B1F5003FF6
:1057980000F0E880002900F07E8201263546580393
:1057A8000FD5D4F88420B2F5001F00F0C180B2F5FF
:1057B800401F00F0C480B2F5801F00F075820126FA
:1057C8003546D90317D5E26C002A00F08681B2F578
:1057D800803F40F024810221201DFFF769FC054627
:1057E8002368002D40F081816949E06CCA6C22F47D
:1057F80080320243CA649A0000F106819F0335D4BF
:10580800301E18BF0120DE0206D56149256F0A6DDA
:1058180022F000422A430A65DD0007D55C49D4F826
:10582800B4500A6922F480422A430A61990206D5D3
:105838005749A56E0A6D22F080722A430A655A00FC
:1058480009D5534A116921F4004111611169D4F84D
:10585800B85029431161002B06DA4D4A216DD36CEB
:1058680023F040530B43D364BDE8F883E26FB2F5ED
:10587800807F00F0078226D922F48071B1F5007F7D
:1058880023D00120BFE701263546C8E63546002D5E
:1058980040F0CE803E49606D0A6D22F00702024357
:1058A8000A6536E50121201DFFF702FC236805463D
:1058B800002D40F0FE803649E06E0A6D22F040521D
:1058C80002430A650DE6002ADBD1002DD9D1304DFF
:1058D800301E696D18BF012021F440710A436A65C2
:1058E80091E722F08051B1F1804F3FF4E0AEB2F180
:1058F800405F3FF4DCAE01263546E3E622F48061E2
:10590800B1F5805F3FF4F3AEB2F5406F3FF4EFAE10
:1059180001263546F6E622F40051B1F5004F3FF472
:1059280006AFB2F5C04F3FF402AF0126354609E78E
:10593800012104F12400FFF737FC23680546002DF8
:1059480040F0BF801249D4F884004A6D22F4401216
:1059580002434A6535E7022104F12400FFF724FCDD
:1059680023680546002D40F0AA800949D4F8A00014
:105978008A6D22F4403202438A6510E7054B1A68A3
:10598800984642F480721A6001F07CFE074609E0EE
:10599800004402580048025801F074FEC01B6428F5
:1059A80000F26A81D8F80030DA05F5D5002D40F00C
:1059B800A281B34AD4F8B030116F594011F4407F36
:1059C8000BD0116F106F21F4407140F480301067D4
:1059D800106F20F4803010671167B3F5807F00F0F6
:1059E8006C8103F44072B2F5407F00F07A81A449DB
:1059F8000A6922F47C520A61A14AC3F30B03116FAE
:105A08000B4313672368CEE5022104F12400FFF756
:105A1800CBFB236800283FF4F1AE0126EEE6012611
:105A28003546E8E62E4692E42E46D4E42E46B0E407
:105A38002E466EE42E4609E59149CA6A42F40032C0
:105A4800CA627AE48E49CA6A42F40032CA62B7E48A
:105A58008B49CA6A42F40032CA62EDE48848C16AD6
:105A680041F40031C16238E48549CA6A42F400321F
:105A7800CA6283E48249606CCA6C22F00302024362
:105A8800CA648DE52E46C1E47D49D4F890008A6D3C
:105A980022F0070202438A65F4E57949606F4A6D8E
:105AA80022F0070202434A65D2E52E46EBE42E4671
:105AB80007E52E4615E52E4644E62E4622E62E46F6
:105AC8006DE62E467DE66E49A06F4A6D22F03802DB
